{
  "_format": "hh-sol-artifact-1",
  "contractName": "IceBoxMessage",
  "sourceName": "contracts/IceBoxMessage.sol",
  "abi": [
    {
      "inputs": [],
      "stateMutability": "nonpayable",
      "type": "constructor"
    },
    {
      "anonymous": false,
      "inputs": [
        {
          "indexed": true,
          "internalType": "address",
          "name": "owner",
          "type": "address"
        },
        {
          "indexed": true,
          "internalType": "address",
          "name": "approved",
          "type": "address"
        },
        {
          "indexed": true,
          "internalType": "uint256",
          "name": "tokenId",
          "type": "uint256"
        }
      ],
      "name": "Approval",
      "type": "event"
    },
    {
      "anonymous": false,
      "inputs": [
        {
          "indexed": true,
          "internalType": "address",
          "name": "owner",
          "type": "address"
        },
        {
          "indexed": true,
          "internalType": "address",
          "name": "operator",
          "type": "address"
        },
        {
          "indexed": false,
          "internalType": "bool",
          "name": "approved",
          "type": "bool"
        }
      ],
      "name": "ApprovalForAll",
      "type": "event"
    },
    {
      "anonymous": false,
      "inputs": [
        {
          "indexed": true,
          "internalType": "bytes32",
          "name": "role",
          "type": "bytes32"
        },
        {
          "indexed": true,
          "internalType": "bytes32",
          "name": "previousAdminRole",
          "type": "bytes32"
        },
        {
          "indexed": true,
          "internalType": "bytes32",
          "name": "newAdminRole",
          "type": "bytes32"
        }
      ],
      "name": "RoleAdminChanged",
      "type": "event"
    },
    {
      "anonymous": false,
      "inputs": [
        {
          "indexed": true,
          "internalType": "bytes32",
          "name": "role",
          "type": "bytes32"
        },
        {
          "indexed": true,
          "internalType": "address",
          "name": "account",
          "type": "address"
        },
        {
          "indexed": true,
          "internalType": "address",
          "name": "sender",
          "type": "address"
        }
      ],
      "name": "RoleGranted",
      "type": "event"
    },
    {
      "anonymous": false,
      "inputs": [
        {
          "indexed": true,
          "internalType": "bytes32",
          "name": "role",
          "type": "bytes32"
        },
        {
          "indexed": true,
          "internalType": "address",
          "name": "account",
          "type": "address"
        },
        {
          "indexed": true,
          "internalType": "address",
          "name": "sender",
          "type": "address"
        }
      ],
      "name": "RoleRevoked",
      "type": "event"
    },
    {
      "anonymous": false,
      "inputs": [
        {
          "indexed": true,
          "internalType": "address",
          "name": "from",
          "type": "address"
        },
        {
          "indexed": true,
          "internalType": "address",
          "name": "to",
          "type": "address"
        },
        {
          "indexed": true,
          "internalType": "uint256",
          "name": "tokenId",
          "type": "uint256"
        }
      ],
      "name": "Transfer",
      "type": "event"
    },
    {
      "inputs": [],
      "name": "DEFAULT_ADMIN_ROLE",
      "outputs": [
        {
          "internalType": "bytes32",
          "name": "",
          "type": "bytes32"
        }
      ],
      "stateMutability": "view",
      "type": "function"
    },
    {
      "inputs": [],
      "name": "MINTER_ROLE",
      "outputs": [
        {
          "internalType": "bytes32",
          "name": "",
          "type": "bytes32"
        }
      ],
      "stateMutability": "view",
      "type": "function"
    },
    {
      "inputs": [
        {
          "internalType": "address",
          "name": "to",
          "type": "address"
        },
        {
          "internalType": "uint256",
          "name": "tokenId",
          "type": "uint256"
        }
      ],
      "name": "approve",
      "outputs": [],
      "stateMutability": "nonpayable",
      "type": "function"
    },
    {
      "inputs": [
        {
          "internalType": "address",
          "name": "owner",
          "type": "address"
        }
      ],
      "name": "balanceOf",
      "outputs": [
        {
          "internalType": "uint256",
          "name": "",
          "type": "uint256"
        }
      ],
      "stateMutability": "view",
      "type": "function"
    },
    {
      "inputs": [
        {
          "internalType": "uint256",
          "name": "tokenId",
          "type": "uint256"
        }
      ],
      "name": "getApproved",
      "outputs": [
        {
          "internalType": "address",
          "name": "",
          "type": "address"
        }
      ],
      "stateMutability": "view",
      "type": "function"
    },
    {
      "inputs": [
        {
          "internalType": "bytes32",
          "name": "role",
          "type": "bytes32"
        }
      ],
      "name": "getRoleAdmin",
      "outputs": [
        {
          "internalType": "bytes32",
          "name": "",
          "type": "bytes32"
        }
      ],
      "stateMutability": "view",
      "type": "function"
    },
    {
      "inputs": [
        {
          "internalType": "bytes32",
          "name": "role",
          "type": "bytes32"
        },
        {
          "internalType": "address",
          "name": "account",
          "type": "address"
        }
      ],
      "name": "grantRole",
      "outputs": [],
      "stateMutability": "nonpayable",
      "type": "function"
    },
    {
      "inputs": [
        {
          "internalType": "bytes32",
          "name": "role",
          "type": "bytes32"
        },
        {
          "internalType": "address",
          "name": "account",
          "type": "address"
        }
      ],
      "name": "hasRole",
      "outputs": [
        {
          "internalType": "bool",
          "name": "",
          "type": "bool"
        }
      ],
      "stateMutability": "view",
      "type": "function"
    },
    {
      "inputs": [
        {
          "internalType": "address",
          "name": "owner",
          "type": "address"
        },
        {
          "internalType": "address",
          "name": "operator",
          "type": "address"
        }
      ],
      "name": "isApprovedForAll",
      "outputs": [
        {
          "internalType": "bool",
          "name": "",
          "type": "bool"
        }
      ],
      "stateMutability": "view",
      "type": "function"
    },
    {
      "inputs": [],
      "name": "name",
      "outputs": [
        {
          "internalType": "string",
          "name": "",
          "type": "string"
        }
      ],
      "stateMutability": "view",
      "type": "function"
    },
    {
      "inputs": [
        {
          "internalType": "uint256",
          "name": "tokenId",
          "type": "uint256"
        }
      ],
      "name": "ownerOf",
      "outputs": [
        {
          "internalType": "address",
          "name": "",
          "type": "address"
        }
      ],
      "stateMutability": "view",
      "type": "function"
    },
    {
      "inputs": [
        {
          "internalType": "bytes32",
          "name": "role",
          "type": "bytes32"
        },
        {
          "internalType": "address",
          "name": "account",
          "type": "address"
        }
      ],
      "name": "renounceRole",
      "outputs": [],
      "stateMutability": "nonpayable",
      "type": "function"
    },
    {
      "inputs": [
        {
          "internalType": "bytes32",
          "name": "role",
          "type": "bytes32"
        },
        {
          "internalType": "address",
          "name": "account",
          "type": "address"
        }
      ],
      "name": "revokeRole",
      "outputs": [],
      "stateMutability": "nonpayable",
      "type": "function"
    },
    {
      "inputs": [
        {
          "internalType": "address",
          "name": "to",
          "type": "address"
        },
        {
          "internalType": "string",
          "name": "uri",
          "type": "string"
        }
      ],
      "name": "safeMint",
      "outputs": [],
      "stateMutability": "nonpayable",
      "type": "function"
    },
    {
      "inputs": [
        {
          "internalType": "address",
          "name": "from",
          "type": "address"
        },
        {
          "internalType": "address",
          "name": "to",
          "type": "address"
        },
        {
          "internalType": "uint256",
          "name": "tokenId",
          "type": "uint256"
        }
      ],
      "name": "safeTransferFrom",
      "outputs": [],
      "stateMutability": "nonpayable",
      "type": "function"
    },
    {
      "inputs": [
        {
          "internalType": "address",
          "name": "from",
          "type": "address"
        },
        {
          "internalType": "address",
          "name": "to",
          "type": "address"
        },
        {
          "internalType": "uint256",
          "name": "tokenId",
          "type": "uint256"
        },
        {
          "internalType": "bytes",
          "name": "data",
          "type": "bytes"
        }
      ],
      "name": "safeTransferFrom",
      "outputs": [],
      "stateMutability": "nonpayable",
      "type": "function"
    },
    {
      "inputs": [
        {
          "internalType": "address",
          "name": "operator",
          "type": "address"
        },
        {
          "internalType": "bool",
          "name": "approved",
          "type": "bool"
        }
      ],
      "name": "setApprovalForAll",
      "outputs": [],
      "stateMutability": "nonpayable",
      "type": "function"
    },
    {
      "inputs": [
        {
          "internalType": "bytes4",
          "name": "interfaceId",
          "type": "bytes4"
        }
      ],
      "name": "supportsInterface",
      "outputs": [
        {
          "internalType": "bool",
          "name": "",
          "type": "bool"
        }
      ],
      "stateMutability": "view",
      "type": "function"
    },
    {
      "inputs": [],
      "name": "symbol",
      "outputs": [
        {
          "internalType": "string",
          "name": "",
          "type": "string"
        }
      ],
      "stateMutability": "view",
      "type": "function"
    },
    {
      "inputs": [
        {
          "internalType": "uint256",
          "name": "tokenId",
          "type": "uint256"
        }
      ],
      "name": "tokenURI",
      "outputs": [
        {
          "internalType": "string",
          "name": "",
          "type": "string"
        }
      ],
      "stateMutability": "view",
      "type": "function"
    },
    {
      "inputs": [
        {
          "internalType": "address",
          "name": "from",
          "type": "address"
        },
        {
          "internalType": "address",
          "name": "to",
          "type": "address"
        },
        {
          "internalType": "uint256",
          "name": "tokenId",
          "type": "uint256"
        }
      ],
      "name": "transferFrom",
      "outputs": [],
      "stateMutability": "nonpayable",
      "type": "function"
    }
  ],
  "bytecode": "0x60806040523480156200001157600080fd5b506040518060400160405280600d81526020017f496365426f784d657373616765000000000000000000000000000000000000008152506040518060400160405280600381526020017f49424d000000000000000000000000000000000000000000000000000000000081525081600090816200008f9190620004d0565b508060019081620000a19190620004d0565b505050620000b96000801b33620000f160201b60201c565b620000eb7f9f2df0fed2c77648de5860a4cc508cd0818c85b8b8a1ab4ceeef8d981c8956a633620000f160201b60201c565b620005b7565b620001038282620001e360201b60201c565b620001df5760016007600084815260200190815260200160002060000160008373ffffffffffffffffffffffffffffffffffffffff1673ffffffffffffffffffffffffffffffffffffffff16815260200190815260200160002060006101000a81548160ff021916908315150217905550620001846200024e60201b60201c565b73ffffffffffffffffffffffffffffffffffffffff168173ffffffffffffffffffffffffffffffffffffffff16837f2f8788117e7eff1d82e926ec794901d17c78024a50270940304540a733656f0d60405160405180910390a45b5050565b60006007600084815260200190815260200160002060000160008373ffffffffffffffffffffffffffffffffffffffff1673ffffffffffffffffffffffffffffffffffffffff16815260200190815260200160002060009054906101000a900460ff16905092915050565b600033905090565b600081519050919050565b7f4e487b7100000000000000000000000000000000000000000000000000000000600052604160045260246000fd5b7f4e487b7100000000000000000000000000000000000000000000000000000000600052602260045260246000fd5b60006002820490506001821680620002d857607f821691505b602082108103620002ee57620002ed62000290565b5b50919050565b60008190508160005260206000209050919050565b60006020601f8301049050919050565b600082821b905092915050565b600060088302620003587fffffffffffffffffffffffffffffffffffffffffffffffffffffffffffffffff8262000319565b62000364868362000319565b95508019841693508086168417925050509392505050565b6000819050919050565b6000819050919050565b6000620003b1620003ab620003a5846200037c565b62000386565b6200037c565b9050919050565b6000819050919050565b620003cd8362000390565b620003e5620003dc82620003b8565b84845462000326565b825550505050565b600090565b620003fc620003ed565b62000409818484620003c2565b505050565b5b81811015620004315762000425600082620003f2565b6001810190506200040f565b5050565b601f82111562000480576200044a81620002f4565b620004558462000309565b8101602085101562000465578190505b6200047d620004748562000309565b8301826200040e565b50505b505050565b600082821c905092915050565b6000620004a56000198460080262000485565b1980831691505092915050565b6000620004c0838362000492565b9150826002028217905092915050565b620004db8262000256565b67ffffffffffffffff811115620004f757620004f662000261565b5b620005038254620002bf565b6200051082828562000435565b600060209050601f83116001811462000548576000841562000533578287015190505b6200053f8582620004b2565b865550620005af565b601f1984166200055886620002f4565b60005b8281101562000582578489015182556001820191506020850194506020810190506200055b565b86831015620005a257848901516200059e601f89168262000492565b8355505b6001600288020188555050505b505050505050565b6137da80620005c76000396000f3fe608060405234801561001057600080fd5b50600436106101375760003560e01c806370a08231116100b8578063b88d4fde1161007c578063b88d4fde1461035e578063c87b56dd1461037a578063d204c45e146103aa578063d5391393146103c6578063d547741f146103e4578063e985e9c51461040057610137565b806370a08231146102a657806391d14854146102d657806395d89b4114610306578063a217fddf14610324578063a22cb4651461034257610137565b8063248a9ca3116100ff578063248a9ca3146101f25780632f2ff15d1461022257806336568abe1461023e57806342842e0e1461025a5780636352211e1461027657610137565b806301ffc9a71461013c57806306fdde031461016c578063081812fc1461018a578063095ea7b3146101ba57806323b872dd146101d6575b600080fd5b610156600480360381019061015191906122fb565b610430565b6040516101639190612343565b60405180910390f35b610174610442565b60405161018191906123ee565b60405180910390f35b6101a4600480360381019061019f9190612446565b6104d4565b6040516101b191906124b4565b60405180910390f35b6101d460048036038101906101cf91906124fb565b61051a565b005b6101f060048036038101906101eb919061253b565b610631565b005b61020c600480360381019061020791906125c4565b610691565b6040516102199190612600565b60405180910390f35b61023c6004803603810190610237919061261b565b6106b1565b005b6102586004803603810190610253919061261b565b6106d2565b005b610274600480360381019061026f919061253b565b610755565b005b610290600480360381019061028b9190612446565b610775565b60405161029d91906124b4565b60405180910390f35b6102c060048036038101906102bb919061265b565b6107fb565b6040516102cd9190612697565b60405180910390f35b6102f060048036038101906102eb919061261b565b6108b2565b6040516102fd9190612343565b60405180910390f35b61030e61091d565b60405161031b91906123ee565b60405180910390f35b61032c6109af565b6040516103399190612600565b60405180910390f35b61035c600480360381019061035791906126de565b6109b6565b005b61037860048036038101906103739190612853565b6109cc565b005b610394600480360381019061038f9190612446565b610a2e565b6040516103a191906123ee565b60405180910390f35b6103c460048036038101906103bf9190612977565b610a40565b005b6103ce610a9c565b6040516103db9190612600565b60405180910390f35b6103fe60048036038101906103f9919061261b565b610ac0565b005b61041a600480360381019061041591906129d3565b610ae1565b6040516104279190612343565b60405180910390f35b600061043b82610b75565b9050919050565b60606000805461045190612a42565b80601f016020809104026020016040519081016040528092919081815260200182805461047d90612a42565b80156104ca5780601f1061049f576101008083540402835291602001916104ca565b820191906000526020600020905b8154815290600101906020018083116104ad57829003601f168201915b5050505050905090565b60006104df82610bef565b6004600083815260200190815260200160002060009054906101000a900473ffffffffffffffffffffffffffffffffffffffff169050919050565b600061052582610775565b90508073ffffffffffffffffffffffffffffffffffffffff168373ffffffffffffffffffffffffffffffffffffffff1603610595576040517f08c379a000000000000000000000000000000000000000000000000000000000815260040161058c90612ae5565b60405180910390fd5b8073ffffffffffffffffffffffffffffffffffffffff166105b4610c3a565b73ffffffffffffffffffffffffffffffffffffffff1614806105e357506105e2816105dd610c3a565b610ae1565b5b610622576040517f08c379a000000000000000000000000000000000000000000000000000000000815260040161061990612b77565b60405180910390fd5b61062c8383610c42565b505050565b61064261063c610c3a565b82610cfb565b610681576040517f08c379a000000000000000000000000000000000000000000000000000000000815260040161067890612c09565b60405180910390fd5b61068c838383610d90565b505050565b600060076000838152602001908152602001600020600101549050919050565b6106ba82610691565b6106c381611089565b6106cd838361109d565b505050565b6106da610c3a565b73ffffffffffffffffffffffffffffffffffffffff168173ffffffffffffffffffffffffffffffffffffffff1614610747576040517f08c379a000000000000000000000000000000000000000000000000000000000815260040161073e90612c9b565b60405180910390fd5b610751828261117e565b5050565b610770838383604051806020016040528060008152506109cc565b505050565b60008061078183611260565b9050600073ffffffffffffffffffffffffffffffffffffffff168173ffffffffffffffffffffffffffffffffffffffff16036107f2576040517f08c379a00000000000000000000000000000000000000000000000000000000081526004016107e990612d07565b60405180910390fd5b80915050919050565b60008073ffffffffffffffffffffffffffffffffffffffff168273ffffffffffffffffffffffffffffffffffffffff160361086b576040517f08c379a000000000000000000000000000000000000000000000000000000000815260040161086290612d99565b60405180910390fd5b600360008373ffffffffffffffffffffffffffffffffffffffff1673ffffffffffffffffffffffffffffffffffffffff168152602001908152602001600020549050919050565b60006007600084815260200190815260200160002060000160008373ffffffffffffffffffffffffffffffffffffffff1673ffffffffffffffffffffffffffffffffffffffff16815260200190815260200160002060009054906101000a900460ff16905092915050565b60606001805461092c90612a42565b80601f016020809104026020016040519081016040528092919081815260200182805461095890612a42565b80156109a55780601f1061097a576101008083540402835291602001916109a5565b820191906000526020600020905b81548152906001019060200180831161098857829003601f168201915b5050505050905090565b6000801b81565b6109c86109c1610c3a565b838361129d565b5050565b6109dd6109d7610c3a565b83610cfb565b610a1c576040517f08c379a0000000000000000000000000000000000000000000000000000000008152600401610a1390612c09565b60405180910390fd5b610a2884848484611409565b50505050565b6060610a3982611465565b9050919050565b7f9f2df0fed2c77648de5860a4cc508cd0818c85b8b8a1ab4ceeef8d981c8956a6610a6a81611089565b6000610a766008611577565b9050610a826008611585565b610a8c848261159b565b610a9681846115b9565b50505050565b7f9f2df0fed2c77648de5860a4cc508cd0818c85b8b8a1ab4ceeef8d981c8956a681565b610ac982610691565b610ad281611089565b610adc838361117e565b505050565b6000600560008473ffffffffffffffffffffffffffffffffffffffff1673ffffffffffffffffffffffffffffffffffffffff16815260200190815260200160002060008373ffffffffffffffffffffffffffffffffffffffff1673ffffffffffffffffffffffffffffffffffffffff16815260200190815260200160002060009054906101000a900460ff16905092915050565b60007f7965db0b000000000000000000000000000000000000000000000000000000007bffffffffffffffffffffffffffffffffffffffffffffffffffffffff1916827bffffffffffffffffffffffffffffffffffffffffffffffffffffffff19161480610be85750610be782611626565b5b9050919050565b610bf881611708565b610c37576040517f08c379a0000000000000000000000000000000000000000000000000000000008152600401610c2e90612d07565b60405180910390fd5b50565b600033905090565b816004600083815260200190815260200160002060006101000a81548173ffffffffffffffffffffffffffffffffffffffff021916908373ffffffffffffffffffffffffffffffffffffffff160217905550808273ffffffffffffffffffffffffffffffffffffffff16610cb583610775565b73ffffffffffffffffffffffffffffffffffffffff167f8c5be1e5ebec7d5bd14f71427d1e84f3dd0314c0f7b2291e5b200ac8c7c3b92560405160405180910390a45050565b600080610d0783610775565b90508073ffffffffffffffffffffffffffffffffffffffff168473ffffffffffffffffffffffffffffffffffffffff161480610d495750610d488185610ae1565b5b80610d8757508373ffffffffffffffffffffffffffffffffffffffff16610d6f846104d4565b73ffffffffffffffffffffffffffffffffffffffff16145b91505092915050565b8273ffffffffffffffffffffffffffffffffffffffff16610db082610775565b73ffffffffffffffffffffffffffffffffffffffff1614610e06576040517f08c379a0000000000000000000000000000000000000000000000000000000008152600401610dfd90612e2b565b60405180910390fd5b600073ffffffffffffffffffffffffffffffffffffffff168273ffffffffffffffffffffffffffffffffffffffff1603610e75576040517f08c379a0000000000000000000000000000000000000000000000000000000008152600401610e6c90612ebd565b60405180910390fd5b610e828383836001611749565b8273ffffffffffffffffffffffffffffffffffffffff16610ea282610775565b73ffffffffffffffffffffffffffffffffffffffff1614610ef8576040517f08c379a0000000000000000000000000000000000000000000000000000000008152600401610eef90612e2b565b60405180910390fd5b6004600082815260200190815260200160002060006101000a81549073ffffffffffffffffffffffffffffffffffffffff02191690556001600360008573ffffffffffffffffffffffffffffffffffffffff1673ffffffffffffffffffffffffffffffffffffffff168152602001908152602001600020600082825403925050819055506001600360008473ffffffffffffffffffffffffffffffffffffffff1673ffffffffffffffffffffffffffffffffffffffff16815260200190815260200160002060008282540192505081905550816002600083815260200190815260200160002060006101000a81548173ffffffffffffffffffffffffffffffffffffffff021916908373ffffffffffffffffffffffffffffffffffffffff160217905550808273ffffffffffffffffffffffffffffffffffffffff168473ffffffffffffffffffffffffffffffffffffffff167fddf252ad1be2c89b69c2b068fc378daa952ba7f163c4a11628f55a4df523b3ef60405160405180910390a4611084838383600161186f565b505050565b61109a81611095610c3a565b611875565b50565b6110a782826108b2565b61117a5760016007600084815260200190815260200160002060000160008373ffffffffffffffffffffffffffffffffffffffff1673ffffffffffffffffffffffffffffffffffffffff16815260200190815260200160002060006101000a81548160ff02191690831515021790555061111f610c3a565b73ffffffffffffffffffffffffffffffffffffffff168173ffffffffffffffffffffffffffffffffffffffff16837f2f8788117e7eff1d82e926ec794901d17c78024a50270940304540a733656f0d60405160405180910390a45b5050565b61118882826108b2565b1561125c5760006007600084815260200190815260200160002060000160008373ffffffffffffffffffffffffffffffffffffffff1673ffffffffffffffffffffffffffffffffffffffff16815260200190815260200160002060006101000a81548160ff021916908315150217905550611201610c3a565b73ffffffffffffffffffffffffffffffffffffffff168173ffffffffffffffffffffffffffffffffffffffff16837ff6391f5c32d9c69d2a47ea670b442974b53935d1edc7fd64eb21e047a839171b60405160405180910390a45b5050565b60006002600083815260200190815260200160002060009054906101000a900473ffffffffffffffffffffffffffffffffffffffff169050919050565b8173ffffffffffffffffffffffffffffffffffffffff168373ffffffffffffffffffffffffffffffffffffffff160361130b576040517f08c379a000000000000000000000000000000000000000000000000000000000815260040161130290612f29565b60405180910390fd5b80600560008573ffffffffffffffffffffffffffffffffffffffff1673ffffffffffffffffffffffffffffffffffffffff16815260200190815260200160002060008473ffffffffffffffffffffffffffffffffffffffff1673ffffffffffffffffffffffffffffffffffffffff16815260200190815260200160002060006101000a81548160ff0219169083151502179055508173ffffffffffffffffffffffffffffffffffffffff168373ffffffffffffffffffffffffffffffffffffffff167f17307eab39ab6107e8899845ad3d59bd9653f200f220920489ca2b5937696c31836040516113fc9190612343565b60405180910390a3505050565b611414848484610d90565b611420848484846118fa565b61145f576040517f08c379a000000000000000000000000000000000000000000000000000000000815260040161145690612fbb565b60405180910390fd5b50505050565b606061147082610bef565b600060066000848152602001908152602001600020805461149090612a42565b80601f01602080910402602001604051908101604052809291908181526020018280546114bc90612a42565b80156115095780601f106114de57610100808354040283529160200191611509565b820191906000526020600020905b8154815290600101906020018083116114ec57829003601f168201915b50505050509050600061151a611a81565b9050600081510361152f578192505050611572565b60008251111561156457808260405160200161154c929190613017565b60405160208183030381529060405292505050611572565b61156d84611a98565b925050505b919050565b600081600001549050919050565b6001816000016000828254019250508190555050565b6115b5828260405180602001604052806000815250611b00565b5050565b6115c282611708565b611601576040517f08c379a00000000000000000000000000000000000000000000000000000000081526004016115f8906130ad565b60405180910390fd5b806006600084815260200190815260200160002090816116219190613279565b505050565b60007f80ac58cd000000000000000000000000000000000000000000000000000000007bffffffffffffffffffffffffffffffffffffffffffffffffffffffff1916827bffffffffffffffffffffffffffffffffffffffffffffffffffffffff191614806116f157507f5b5e139f000000000000000000000000000000000000000000000000000000007bffffffffffffffffffffffffffffffffffffffffffffffffffffffff1916827bffffffffffffffffffffffffffffffffffffffffffffffffffffffff1916145b80611701575061170082611b5b565b5b9050919050565b60008073ffffffffffffffffffffffffffffffffffffffff1661172a83611260565b73ffffffffffffffffffffffffffffffffffffffff1614159050919050565b600181111561186957600073ffffffffffffffffffffffffffffffffffffffff168473ffffffffffffffffffffffffffffffffffffffff16146117dd5780600360008673ffffffffffffffffffffffffffffffffffffffff1673ffffffffffffffffffffffffffffffffffffffff16815260200190815260200160002060008282546117d5919061337a565b925050819055505b600073ffffffffffffffffffffffffffffffffffffffff168373ffffffffffffffffffffffffffffffffffffffff16146118685780600360008573ffffffffffffffffffffffffffffffffffffffff1673ffffffffffffffffffffffffffffffffffffffff168152602001908152602001600020600082825461186091906133ae565b925050819055505b5b50505050565b50505050565b61187f82826108b2565b6118f65761188c81611bc5565b61189a8360001c6020611bf2565b6040516020016118ab92919061347a565b6040516020818303038152906040526040517f08c379a00000000000000000000000000000000000000000000000000000000081526004016118ed91906123ee565b60405180910390fd5b5050565b600061191b8473ffffffffffffffffffffffffffffffffffffffff16611e2e565b15611a74578373ffffffffffffffffffffffffffffffffffffffff1663150b7a02611944610c3a565b8786866040518563ffffffff1660e01b81526004016119669493929190613509565b6020604051808303816000875af19250505080156119a257506040513d601f19601f8201168201806040525081019061199f919061356a565b60015b611a24573d80600081146119d2576040519150601f19603f3d011682016040523d82523d6000602084013e6119d7565b606091505b506000815103611a1c576040517f08c379a0000000000000000000000000000000000000000000000000000000008152600401611a1390612fbb565b60405180910390fd5b805181602001fd5b63150b7a0260e01b7bffffffffffffffffffffffffffffffffffffffffffffffffffffffff1916817bffffffffffffffffffffffffffffffffffffffffffffffffffffffff191614915050611a79565b600190505b949350505050565b606060405180602001604052806000815250905090565b6060611aa382610bef565b6000611aad611a81565b90506000815111611acd5760405180602001604052806000815250611af8565b80611ad784611e51565b604051602001611ae8929190613017565b6040516020818303038152906040525b915050919050565b611b0a8383611f1f565b611b1760008484846118fa565b611b56576040517f08c379a0000000000000000000000000000000000000000000000000000000008152600401611b4d90612fbb565b60405180910390fd5b505050565b60007f01ffc9a7000000000000000000000000000000000000000000000000000000007bffffffffffffffffffffffffffffffffffffffffffffffffffffffff1916827bffffffffffffffffffffffffffffffffffffffffffffffffffffffff1916149050919050565b6060611beb8273ffffffffffffffffffffffffffffffffffffffff16601460ff16611bf2565b9050919050565b606060006002836002611c059190613597565b611c0f91906133ae565b67ffffffffffffffff811115611c2857611c27612728565b5b6040519080825280601f01601f191660200182016040528015611c5a5781602001600182028036833780820191505090505b5090507f300000000000000000000000000000000000000000000000000000000000000081600081518110611c9257611c916135d9565b5b60200101907effffffffffffffffffffffffffffffffffffffffffffffffffffffffffffff1916908160001a9053507f780000000000000000000000000000000000000000000000000000000000000081600181518110611cf657611cf56135d9565b5b60200101907effffffffffffffffffffffffffffffffffffffffffffffffffffffffffffff1916908160001a90535060006001846002611d369190613597565b611d4091906133ae565b90505b6001811115611de0577f3031323334353637383961626364656600000000000000000000000000000000600f861660108110611d8257611d816135d9565b5b1a60f81b828281518110611d9957611d986135d9565b5b60200101907effffffffffffffffffffffffffffffffffffffffffffffffffffffffffffff1916908160001a905350600485901c945080611dd990613608565b9050611d43565b5060008414611e24576040517f08c379a0000000000000000000000000000000000000000000000000000000008152600401611e1b9061367d565b60405180910390fd5b8091505092915050565b6000808273ffffffffffffffffffffffffffffffffffffffff163b119050919050565b606060006001611e608461213c565b01905060008167ffffffffffffffff811115611e7f57611e7e612728565b5b6040519080825280601f01601f191660200182016040528015611eb15781602001600182028036833780820191505090505b509050600082602001820190505b600115611f14578080600190039150507f3031323334353637383961626364656600000000000000000000000000000000600a86061a8153600a8581611f0857611f0761369d565b5b04945060008503611ebf575b819350505050919050565b600073ffffffffffffffffffffffffffffffffffffffff168273ffffffffffffffffffffffffffffffffffffffff1603611f8e576040517f08c379a0000000000000000000000000000000000000000000000000000000008152600401611f8590613718565b60405180910390fd5b611f9781611708565b15611fd7576040517f08c379a0000000000000000000000000000000000000000000000000000000008152600401611fce90613784565b60405180910390fd5b611fe5600083836001611749565b611fee81611708565b1561202e576040517f08c379a000000000000000000000000000000000000000000000000000000000815260040161202590613784565b60405180910390fd5b6001600360008473ffffffffffffffffffffffffffffffffffffffff1673ffffffffffffffffffffffffffffffffffffffff16815260200190815260200160002060008282540192505081905550816002600083815260200190815260200160002060006101000a81548173ffffffffffffffffffffffffffffffffffffffff021916908373ffffffffffffffffffffffffffffffffffffffff160217905550808273ffffffffffffffffffffffffffffffffffffffff16600073ffffffffffffffffffffffffffffffffffffffff167fddf252ad1be2c89b69c2b068fc378daa952ba7f163c4a11628f55a4df523b3ef60405160405180910390a461213860008383600161186f565b5050565b600080600090507a184f03e93ff9f4daa797ed6e38ed64bf6a1f010000000000000000831061219a577a184f03e93ff9f4daa797ed6e38ed64bf6a1f01000000000000000083816121905761218f61369d565b5b0492506040810190505b6d04ee2d6d415b85acef810000000083106121d7576d04ee2d6d415b85acef810000000083816121cd576121cc61369d565b5b0492506020810190505b662386f26fc10000831061220657662386f26fc1000083816121fc576121fb61369d565b5b0492506010810190505b6305f5e100831061222f576305f5e10083816122255761222461369d565b5b0492506008810190505b612710831061225457612710838161224a5761224961369d565b5b0492506004810190505b60648310612277576064838161226d5761226c61369d565b5b0492506002810190505b600a8310612286576001810190505b80915050919050565b6000604051905090565b600080fd5b600080fd5b60007fffffffff0000000000000000000000000000000000000000000000000000000082169050919050565b6122d8816122a3565b81146122e357600080fd5b50565b6000813590506122f5816122cf565b92915050565b60006020828403121561231157612310612299565b5b600061231f848285016122e6565b91505092915050565b60008115159050919050565b61233d81612328565b82525050565b60006020820190506123586000830184612334565b92915050565b600081519050919050565b600082825260208201905092915050565b60005b8381101561239857808201518184015260208101905061237d565b60008484015250505050565b6000601f19601f8301169050919050565b60006123c08261235e565b6123ca8185612369565b93506123da81856020860161237a565b6123e3816123a4565b840191505092915050565b6000602082019050818103600083015261240881846123b5565b905092915050565b6000819050919050565b61242381612410565b811461242e57600080fd5b50565b6000813590506124408161241a565b92915050565b60006020828403121561245c5761245b612299565b5b600061246a84828501612431565b91505092915050565b600073ffffffffffffffffffffffffffffffffffffffff82169050919050565b600061249e82612473565b9050919050565b6124ae81612493565b82525050565b60006020820190506124c960008301846124a5565b92915050565b6124d881612493565b81146124e357600080fd5b50565b6000813590506124f5816124cf565b92915050565b6000806040838503121561251257612511612299565b5b6000612520858286016124e6565b925050602061253185828601612431565b9150509250929050565b60008060006060848603121561255457612553612299565b5b6000612562868287016124e6565b9350506020612573868287016124e6565b925050604061258486828701612431565b9150509250925092565b6000819050919050565b6125a18161258e565b81146125ac57600080fd5b50565b6000813590506125be81612598565b92915050565b6000602082840312156125da576125d9612299565b5b60006125e8848285016125af565b91505092915050565b6125fa8161258e565b82525050565b600060208201905061261560008301846125f1565b92915050565b6000806040838503121561263257612631612299565b5b6000612640858286016125af565b9250506020612651858286016124e6565b9150509250929050565b60006020828403121561267157612670612299565b5b600061267f848285016124e6565b91505092915050565b61269181612410565b82525050565b60006020820190506126ac6000830184612688565b92915050565b6126bb81612328565b81146126c657600080fd5b50565b6000813590506126d8816126b2565b92915050565b600080604083850312156126f5576126f4612299565b5b6000612703858286016124e6565b9250506020612714858286016126c9565b9150509250929050565b600080fd5b600080fd5b7f4e487b7100000000000000000000000000000000000000000000000000000000600052604160045260246000fd5b612760826123a4565b810181811067ffffffffffffffff8211171561277f5761277e612728565b5b80604052505050565b600061279261228f565b905061279e8282612757565b919050565b600067ffffffffffffffff8211156127be576127bd612728565b5b6127c7826123a4565b9050602081019050919050565b82818337600083830152505050565b60006127f66127f1846127a3565b612788565b90508281526020810184848401111561281257612811612723565b5b61281d8482856127d4565b509392505050565b600082601f83011261283a5761283961271e565b5b813561284a8482602086016127e3565b91505092915050565b6000806000806080858703121561286d5761286c612299565b5b600061287b878288016124e6565b945050602061288c878288016124e6565b935050604061289d87828801612431565b925050606085013567ffffffffffffffff8111156128be576128bd61229e565b5b6128ca87828801612825565b91505092959194509250565b600067ffffffffffffffff8211156128f1576128f0612728565b5b6128fa826123a4565b9050602081019050919050565b600061291a612915846128d6565b612788565b90508281526020810184848401111561293657612935612723565b5b6129418482856127d4565b509392505050565b600082601f83011261295e5761295d61271e565b5b813561296e848260208601612907565b91505092915050565b6000806040838503121561298e5761298d612299565b5b600061299c858286016124e6565b925050602083013567ffffffffffffffff8111156129bd576129bc61229e565b5b6129c985828601612949565b9150509250929050565b600080604083850312156129ea576129e9612299565b5b60006129f8858286016124e6565b9250506020612a09858286016124e6565b9150509250929050565b7f4e487b7100000000000000000000000000000000000000000000000000000000600052602260045260246000fd5b60006002820490506001821680612a5a57607f821691505b602082108103612a6d57612a6c612a13565b5b50919050565b7f4552433732313a20617070726f76616c20746f2063757272656e74206f776e6560008201527f7200000000000000000000000000000000000000000000000000000000000000602082015250565b6000612acf602183612369565b9150612ada82612a73565b604082019050919050565b60006020820190508181036000830152612afe81612ac2565b9050919050565b7f4552433732313a20617070726f76652063616c6c6572206973206e6f7420746f60008201527f6b656e206f776e6572206f7220617070726f76656420666f7220616c6c000000602082015250565b6000612b61603d83612369565b9150612b6c82612b05565b604082019050919050565b60006020820190508181036000830152612b9081612b54565b9050919050565b7f4552433732313a2063616c6c6572206973206e6f7420746f6b656e206f776e6560008201527f72206f7220617070726f76656400000000000000000000000000000000000000602082015250565b6000612bf3602d83612369565b9150612bfe82612b97565b604082019050919050565b60006020820190508181036000830152612c2281612be6565b9050919050565b7f416363657373436f6e74726f6c3a2063616e206f6e6c792072656e6f756e636560008201527f20726f6c657320666f722073656c660000000000000000000000000000000000602082015250565b6000612c85602f83612369565b9150612c9082612c29565b604082019050919050565b60006020820190508181036000830152612cb481612c78565b9050919050565b7f4552433732313a20696e76616c696420746f6b656e2049440000000000000000600082015250565b6000612cf1601883612369565b9150612cfc82612cbb565b602082019050919050565b60006020820190508181036000830152612d2081612ce4565b9050919050565b7f4552433732313a2061646472657373207a65726f206973206e6f74206120766160008201527f6c6964206f776e65720000000000000000000000000000000000000000000000602082015250565b6000612d83602983612369565b9150612d8e82612d27565b604082019050919050565b60006020820190508181036000830152612db281612d76565b9050919050565b7f4552433732313a207472616e736665722066726f6d20696e636f72726563742060008201527f6f776e6572000000000000000000000000000000000000000000000000000000602082015250565b6000612e15602583612369565b9150612e2082612db9565b604082019050919050565b60006020820190508181036000830152612e4481612e08565b9050919050565b7f4552433732313a207472616e7366657220746f20746865207a65726f2061646460008201527f7265737300000000000000000000000000000000000000000000000000000000602082015250565b6000612ea7602483612369565b9150612eb282612e4b565b604082019050919050565b60006020820190508181036000830152612ed681612e9a565b9050919050565b7f4552433732313a20617070726f766520746f2063616c6c657200000000000000600082015250565b6000612f13601983612369565b9150612f1e82612edd565b602082019050919050565b60006020820190508181036000830152612f4281612f06565b9050919050565b7f4552433732313a207472616e7366657220746f206e6f6e20455243373231526560008201527f63656976657220696d706c656d656e7465720000000000000000000000000000602082015250565b6000612fa5603283612369565b9150612fb082612f49565b604082019050919050565b60006020820190508181036000830152612fd481612f98565b9050919050565b600081905092915050565b6000612ff18261235e565b612ffb8185612fdb565b935061300b81856020860161237a565b80840191505092915050565b60006130238285612fe6565b915061302f8284612fe6565b91508190509392505050565b7f45524337323155524953746f726167653a2055524920736574206f66206e6f6e60008201527f6578697374656e7420746f6b656e000000000000000000000000000000000000602082015250565b6000613097602e83612369565b91506130a28261303b565b604082019050919050565b600060208201905081810360008301526130c68161308a565b9050919050565b60008190508160005260206000209050919050565b60006020601f8301049050919050565b600082821b905092915050565b60006008830261312f7fffffffffffffffffffffffffffffffffffffffffffffffffffffffffffffffff826130f2565b61313986836130f2565b95508019841693508086168417925050509392505050565b6000819050919050565b600061317661317161316c84612410565b613151565b612410565b9050919050565b6000819050919050565b6131908361315b565b6131a461319c8261317d565b8484546130ff565b825550505050565b600090565b6131b96131ac565b6131c4818484613187565b505050565b5b818110156131e8576131dd6000826131b1565b6001810190506131ca565b5050565b601f82111561322d576131fe816130cd565b613207846130e2565b81016020851015613216578190505b61322a613222856130e2565b8301826131c9565b50505b505050565b600082821c905092915050565b600061325060001984600802613232565b1980831691505092915050565b6000613269838361323f565b9150826002028217905092915050565b6132828261235e565b67ffffffffffffffff81111561329b5761329a612728565b5b6132a58254612a42565b6132b08282856131ec565b600060209050601f8311600181146132e357600084156132d1578287015190505b6132db858261325d565b865550613343565b601f1984166132f1866130cd565b60005b82811015613319578489015182556001820191506020850194506020810190506132f4565b868310156133365784890151613332601f89168261323f565b8355505b6001600288020188555050505b505050505050565b7f4e487b7100000000000000000000000000000000000000000000000000000000600052601160045260246000fd5b600061338582612410565b915061339083612410565b92508282039050818111156133a8576133a761334b565b5b92915050565b60006133b982612410565b91506133c483612410565b92508282019050808211156133dc576133db61334b565b5b92915050565b7f416363657373436f6e74726f6c3a206163636f756e7420000000000000000000600082015250565b6000613418601783612fdb565b9150613423826133e2565b601782019050919050565b7f206973206d697373696e6720726f6c6520000000000000000000000000000000600082015250565b6000613464601183612fdb565b915061346f8261342e565b601182019050919050565b60006134858261340b565b91506134918285612fe6565b915061349c82613457565b91506134a88284612fe6565b91508190509392505050565b600081519050919050565b600082825260208201905092915050565b60006134db826134b4565b6134e581856134bf565b93506134f581856020860161237a565b6134fe816123a4565b840191505092915050565b600060808201905061351e60008301876124a5565b61352b60208301866124a5565b6135386040830185612688565b818103606083015261354a81846134d0565b905095945050505050565b600081519050613564816122cf565b92915050565b6000602082840312156135805761357f612299565b5b600061358e84828501613555565b91505092915050565b60006135a282612410565b91506135ad83612410565b92508282026135bb81612410565b915082820484148315176135d2576135d161334b565b5b5092915050565b7f4e487b7100000000000000000000000000000000000000000000000000000000600052603260045260246000fd5b600061361382612410565b9150600082036136265761362561334b565b5b600182039050919050565b7f537472696e67733a20686578206c656e67746820696e73756666696369656e74600082015250565b6000613667602083612369565b915061367282613631565b602082019050919050565b600060208201905081810360008301526136968161365a565b9050919050565b7f4e487b7100000000000000000000000000000000000000000000000000000000600052601260045260246000fd5b7f4552433732313a206d696e7420746f20746865207a65726f2061646472657373600082015250565b6000613702602083612369565b915061370d826136cc565b602082019050919050565b60006020820190508181036000830152613731816136f5565b9050919050565b7f4552433732313a20746f6b656e20616c7265616479206d696e74656400000000600082015250565b600061376e601c83612369565b915061377982613738565b602082019050919050565b6000602082019050818103600083015261379d81613761565b905091905056fea264697066735822122002077d0e87d078d1cd3df00d10ed5cd45669a43212b5894557eef6eaa6d8492464736f6c63430008110033",
  "linkReferences": {},
  "deployedLinkReferences": {}
}